:02000004080AE8
:1000000000000A0804140A080000060006000501A2
:0800100004027E05000000005F
:0400180098100A082A
:10001C0009480A4908B5884205D0094A824202D0EB
:10002C00121A00F0EFFF0748074A0021121A00F0DD
:10003C00F4FF064808BD00BF0000002074130A0836
:10004C006800002068000020F4050020F405002062
:10005C0070B500F0EFFA074B074C1E46E41AA408E3
:10006C000025A54204D056F8253098470135F8E70D
:10007C0070BD00BF34130A0868130A0800F011B8E9
:10008C0008B500F012F8BDE8084000F095BA00F091
:10009C009FB90078B0FA80F04009704701230370D3
:1000AC00704701210A2000F0CBBD08B500210A20C1
:1000BC0000F0D7FD4FF47A7000F02CFA0A200121E1
:1000CC0000F0CFFDBDE808404FF4FA6000F022BA12
:1000DC0000F000B808B5024B1B681B68019308BD03
:1000EC00B001060808B5024B1B689B68019308BD5C
:1000FC00B001060808B5024B1B68DB68019308BD0C
:10010C00B001060808B5024B1B681B69019308BDBA
:10011C00B001060808B5024B1B68DB69019308BDEA
:10012C00B401060808B5024B1B681B6A019308BD95
:10013C00B401060808B5024B1B685B68019308BD47
:10014C009C01060808B5024B1B685B69019308BD4E
:10015C009C01060808B5024B1B681B6B019308BD7C
:10016C00D001060808B5024B1B689B69019308BDBA
:10017C00C401060808B5024B1B685B6A019308BDF5
:10018C00C401060808B5024B1B689B6A019308BDA5
:10019C00C401060808B5024B1B68DB6A019308BD55
:1001AC00C401060808B5024B1B681B6B019308BD04
:1001BC00C401060808B5024B1B685B6B019308BDB4
:1001CC00C401060808B5024B1B689B6B019308BD64
:1001DC00C401060808B5024B1B681B6C019308BDD3
:1001EC00C401060808B5024B1B681B6E019308BDC1
:1001FC00AC01060808B5024B1B685B6E019308BD89
:10020C00AC01060808B5024B1B689B6E019308BD38
:10021C00AC01060808B5024B1B68DB6E019308BDE8
:10022C00AC01060808B5024B1B681B6F019308BD97
:10023C00AC01060808B5024B1B685B6F019308BD47
:10024C00AC01060808B5034B1B68D3F8803001934A
:10025C0008BD0000AC01060808B5024B1B681B6802
:10026C00019308BDD801060808B5024B1B681B6931
:10027C00019308BDD801060808B5024B1B685B69E1
:10028C00019308BDD801060808B5024B1B689B6991
:10029C00019308BDD801060808B5024B1B68DB6941
:1002AC00019308BDD801060808B5024B1B681B6AF0
:1002BC00019308BDD801060808B5024B1B689B6C5E
:1002CC00019308BDC001060808B5024B1B685B68AA
:1002DC00019308BDA401060808B5024B1B685B69B5
:1002EC00019308BDA401060808B5034B1B68D3F89D
:1002FC009030019308BD0000A401060808B5034B1B
:10030C001B68D3F89C30019308BD0000A4010608BB
:10031C0008B5024B1B685B68019308BDC801060851
:10032C0008B5024B1B689B68019308BDC801060801
:10033C0008B5024B1B68DB68019308BDC8010608B1
:10034C0008B5024B1B681B69019308BDC801060860
:10035C0008B5024B1B685B69019308BDC801060810
:10036C0008B5024B1B689B69019308BDC8010608C0
:10037C0008B5024B1B68DB69019308BDC801060870
:10038C0008B5024B1B681B6A019308BDC80106081F
:10039C0008B5024B1B681B6B019308BDC80106080E
:1003AC0008B5024B1B685B6B019308BDC8010608BE
:1003BC0008B5024B1B68DB6B019308BDCC0106082A
:1003CC0008B5024B1B681B68019308BDA001060809
:1003DC0008B5024B1B685B68019308BDA0010608B9
:1003EC00704710B50446102100F0B3FC204610BD38
:1003FC0070B504460E46074B0025036040F80C5FB1
:10040C00FFF7A8FE30462671FFF784FEA560204654
:10041C0070BD00BFB4100A080079FFF783BE00005E
:10042C004FF6FF72034B0020187058809A80FFF72C
:10043C004BBF00BF6C000020F8B506460D468F1868
:10044C000024BD420CD0336815F8011B9B68304664
:10045C009847002801DB0444F3E7002C08BF04464E
:10046C002046F8BD70B505460C46084649B100F06B
:10047C0005FE2B68024621462846BDE87040DB6825
:10048C00184770BD03689B681847012A98BF0A2259
:10049C0030B50B468BB000218DF824100DF12304E0
:1004AC00B3FBF2F505FB1233DBB2092B94BF3033EF
:1004BC003733DBB2214604F801392B46002DEFD13E
:1004CC00FFF7D0FF0BB030BD10B422B90368C9B22E
:1004DC009B6810BC1847D2B210BCFFF7D6BFFFF711
:1004EC00F3BF00231A4619464068FFF731BF0000DE
:1004FC00014A024B1A60704732110A08740000203E
:10050C00024B1A68024B1A60704700BF00000020B3
:10051C00780000200021FFF7DFBE10B58368044689
:10052C0013B1032201469847204610BD10B504466E
:10053C00FFF7F3FF204610BD034800238360034AF6
:10054C00034900F001BC00BF7C00002068000020C3
:10055C0039050A0808B5144B33B100F067F9036884
:10056C001B699847002816DC104B33B100F01CFABD
:10057C0003681B699847002810DC0D4B0BB1AFF3D7
:10058C0000800C4B7BB100F08DF903681B69984718
:10059C00002806DC08BDAFF30080E5E7AFF3008070
:1005AC00EBE7AFF3008008BD000000000000000086
:1005BC00000000000000000008B5FFF7CBFFFFF7BC
:1005CC00C1FD014B186008BD200500200248034AFC
:1005DC000349121A00F016BD0040024004400240CC
:1005EC0070130A0807B5002300931A466FF07701C1
:1005FC00FFF784FE03B05DF804FB000007B54388E9
:10060C000A2B08D0502B09D1094B1B683BB103B006
:10061C005DF804EB1847FFF7E5FF06E000230093B5
:10062C001A466FF07701FFF769FE03B05DF804FB23
:10063C008C00002038B5104C104D2368AB42104B89
:10064C000CBF012200221A7002D0FFF7BFFF2560F9
:10065C00FFF770FD044600F0E9FC0A4B13B120468D
:10066C00AFF3008000210748FFF7A2FEBDE8384039
:10067C0000210548FFF738BE004002401E1C279A97
:10068C00900000200000000009060A08704710B511
:10069C000446182100F05DFB204610BDF8B50F464E
:1006AC0000F10806051D002416F8011D0A22384623
:1006BC00FFF715FFAE42044407D0002CF4D02E21D6
:1006CC003846FFF7DFFE0444EEE72046F8BD000095
:1006DC0010B50446044B112240F8043B002100F0F5
:1006EC009CFC204610BD00BFD4110A080346074AE3
:1006FC0010B543F8042B01F1100251F8044B914250
:10070C0043F8044BF9D10A781A7010BDD4110A08B9
:10071C00024A41600260042202757047D4110A0833
:10072C0010B59DF8084044EA032343EA024242EA2A
:10073C00016104234160037510BD000037B5044D01
:10074C0005609DF818500095FFF7EAFF03B030BD27
:10075C00D4110A0841747047704708B50021007C19
:10076C00FFF792FD30EA200028BF4FF0FF3008BDA4
:10077C0008B50121007CFFF787FD30EA200028BF77
:10078C004FF0FF3008BD08B5007CFFF775FD20EA7F
:10079C00E07008BD08B5007CFFF766FD20EAE0704C
:1007AC0008BD007CFFF780BD10B50446142100F095
:1007BC00D0FA204610BD38B50446007C0D46FFF734
:1007CC005BFD002801DC607C28B12946207CFFF70A
:1007DC0063FD20EAE07038BD10B504460023636069
:1007EC004FF47A73A360054B0846236001232174F0
:1007FC0063741146FFF730FD204610BDE8110A085E
:10080C0010B504461422002100F007FC054B2046CD
:10081C006360054BE36040F2011323818123238243
:10082C0010BD00BF190100209800002030B50E4DFE
:10083C0087B001A8FFF7E4FF296811F0010410D17B
:10084C002846FFF726FC60B101AA21460748FFF7AE
:10085C00C3FF2846FFF722FC054A0649034800F06F
:10086C0073FA024807B030BD940000201C0200202F
:10087C006800002065070A0810B504461422002100
:10088C0000F0CBFB054B20466360054BE36040F268
:10089C00011323818123238210BD00BFCC020020D1
:1008AC003402002010B50E4C86B001A8FFF7E4FF0F
:1008BC002368DB0710D42046FFF7EBFB60B101AADD
:1008CC0001210848FFF788FF2046FFF7E7FB064A9F
:1008DC000649044800F038FA024806B010BD00BFC3
:1008EC0030020020B80200206800002065070A08CA
:1008FC0070474174704708B5007CFFF76BFC20EA29
:10090C00E07008BD08B5007CFFF73CFC20EAE07005
:10091C0008BD08B5007CFFF745FC30EA200028BF75
:10092C004FF0FF3008BD08B5007CFFF733FC30EA10
:10093C00200028BF4FF0FF3008BD007CFFF73ABC09
:10094C0010B50446142100F004FA204610BD70B511
:10095C00457C04460E4625B9007CFFF73BFC00287D
:10096C0005DD3146207CBDE87040FFF703BC28460E
:10097C0070BD000010B504460846114600226260A6
:10098C004FF47A72A260054A2074226001226274CC
:10099C001A46FFF7E7FB204610BD00BF18120A08E5
:1009AC00007CFFF70FBC000038B50C4D296811F026
:1009BC00010411D12846FFF76CFB68B1084A2146A7
:1009CC00084B0948FFF7D6FF2846FFF767FB074A95
:1009DC000749054800F0B8F9034838BD6804002001
:1009EC006C040020E4030020D003002068000020E9
:1009FC00FD080A087047F8B5064615460C468F18D0
:100A0C00BC4206D0336814F8011B9B6830469847EB
:100A1C00F6E72846F8BD0022007CFFF7E3BB002177
:100A2C00007CFFF7E7BB0021007CFFF7EBBB00214C
:100A3C00007CFFF7EFBB0021007CFFF7F3BB10B588
:100A4C000446142100F085F9204610BD10B504466B
:100A5C0008464FF47A73A360044B00212074616044
:100A6C002360FFF7EFFB204610BD00BF48120A08B9
:100A7C000021007CFFF7DEBB002211464068FFF727
:100A8C005FBCF0B5164689B011220F460446002112
:100A9C0003A800F0C2FA304600F0F0FA00250095E9
:100AAC0081B27B6803AA3046FFF706FC20B12946C9
:100ABC002046FFF72DFE03E003A92046FFF716FEA4
:100ACC00204609B0F0BD002211464068FFF758BC23
:100ADC00002211464068FFF763BC00224068FFF714
:100AEC0057BC002281F001014068FFF741BC002394
:100AFC001A4619464068FFF733BC0022114640687D
:100B0C00FFF70EBC002202214068FFF711BC002346
:100B1C001A464068FFF7FCBB024B04225A60024A9B
:100B2C001A607047F004002070120A0800231A465D
:100B3C004068FFF7EDBB002202214068FFF7F8BBCD
:100B4C00002211464068FFF7EBBB002211464068BB
:100B5C00FFF7F6BB00231A4619464068FFF7F8BBAF
:100B6C0000231A4619464068FFF7FABB002281F0B1
:100B7C0001014068FFF7FCBB00224068FFF708BC8E
:100B8C00002211464068FFF70BBC0022114640685A
:100B9C00FFF7F6BB70B516468EB0044608A8FFF7F3
:100BAC0097FD1122002103A800F037FA304600F01F
:100BBC0065FA00250A4B009581B25B6803AA3046A2
:100BCC00FFF77AFB20B129462046FFF7A1FD03E091
:100BDC0003A92046FFF78AFD20460EB070BD00BF6A
:100BEC00F0040020024B034A1A6000225A6070473E
:100BFC00F8040020A4120A0810B504460F48FFF7A9
:100C0C000BFC28B1A4F10D03022B01D8002010BD60
:100C1C0000F07AF8FFF72CFF08B1012CF6D9FFF79A
:100C2C00C3FEFFF7BDFE18B1A4F11203012BEDD9E1
:100C3C00172C8CBF0020012010BD00BF0005002028
:100C4C00172838B504460D460AD8FF2908D0FFF7F7
:100C5C00D3FF28B129462046BDE83840FFF742BAF9
:100C6C0038BD38B504460D46FFF744FAFF2810D0BE
:100C7C00062804D84D2323FA00F0C30709D42046D4
:100C8C00FFF7BAFF28B129462046BDE83840FFF7E8
:100C9C0039BA38BD70B50C4C0C4E0D4D00212046A8
:100CAC00FFF7A6FB20460B4C3246294600F04CF8C9
:100CBC0001212046FFF79CFB324629462046BDE821
:100CCC00704000F041B800BF000500206800002013
:100CDC00ED030A081005002013B5084C00231A4632
:100CEC00194600932046FFF729FD2046044A054982
:100CFC0002B0BDE8104000F027B800BF240500206A
:100D0C006800002099060A0838B50B4D296811F0C7
:100D1C0001040FD12846FFF7BCF958B1214607480A
:100D2C00FFF794FE2846FFF7B9F9054A0549034831
:100D3C0000F00AF8014838BD3C05002040050020B1
:100D4C0068000020010A0A080B460146184600F00C
:100D5C004BB9FFF79CB90000184B1A68D1075CBF60
:100D6C0001221A60164B1A68D2075CBF01221A6066
:100D7C00144B1A68D0075CBF01221A60124B1A6818
:100D8C00D1075CBF01221A60104B1A68D2075CBFF6
:100D9C0001221A600E4B1A68D0075CBF01221A6040
:100DAC000C4B1A68D1075CBF01221A600A4B1A68F7
:100DBC00D2075CBF01221A60704700BF700500208B
:100DCC006C050020680500206405002060050020EB
:100DDC005C0500205805002054050020244B1A689F
:100DEC00D0075CBF01221A60224B1A68D1075CBF86
:100DFC0001221A60204B1A68D2075CBF01221A60CC
:100E0C001E4B1A68D0075CBF01221A601C4B1A6873
:100E1C00D1075CBF01221A601A4B1A68D2075CBF5B
:100E2C0001221A60184B1A68D0075CBF01221A60A5
:100E3C00164B1A68D1075CBF01221A60144B1A6852
:100E4C00D2075CBF01221A60124B1A68D0075CBF34
:100E5C0001221A60104B1A68D1075CBF01221A607C
:100E6C000E4B1A68D2075CBF01221A60704700BF94
:100E7C00A00500209C05002098050020940500206A
:100E8C00900500208C05002088050020840500209A
:100E9C00800500207C0500207805002074050020CA
:100EAC00244B1A68D0075CBF01221A60224B1A68C7
:100EBC00D1075CBF01221A60204B1A68D2075CBFB5
:100ECC0001221A601E4B1A68D0075CBF01221A60FF
:100EDC001C4B1A68D1075CBF01221A601A4B1A68A6
:100EEC00D2075CBF01221A60184B1A68D0075CBF8E
:100EFC0001221A60164B1A68D1075CBF01221A60D6
:100F0C00144B1A68D2075CBF01221A60124B1A6884
:100F1C00D0075CBF01221A60104B1A68D1075CBF66
:100F2C0001221A600E4B1A68D2075CBF01221A60AC
:100F3C00704700BFD0050020CC050020C80500205C
:100F4C00C4050020C0050020BC050020B805002009
:100F5C00B4050020B0050020AC050020A805002039
:100F6C00A4050020184B1A68D1075CBF01221A6037
:100F7C00164B1A68D2075CBF01221A60144B1A6810
:100F8C00D0075CBF01221A60124B1A68D1075CBFF4
:100F9C0001221A60104B1A68D2075CBF01221A603A
:100FAC000E4B1A68D0075CBF01221A600C4B1A68F2
:100FBC00D1075CBF01221A600A4B1A68D2075CBFCA
:100FCC0001221A60704700BFF0050020EC050020DC
:100FDC00E8050020E4050020E0050020DC050020E9
:100FEC00D8050020D405002010B5054C13462CB1B3
:100FFC000A4601460220AFF3008010BD204610BD0A
:10100C000000000010B5431E0A44914204D011F8B0
:10101C00014B03F8014FF8E710BD0346024493421D
:10102C0002D003F8011BFAE77047000038B5124BE9
:10103C0005461C68A36BD3B91820FFF7C1F943F21E
:10104C000E33A06303804AF6CD33438041F2342340
:10105C0083804EF26D63C3804DF6EC6303810523F0
:10106C0043810B23838101220023C0E90423A36B5A
:10107C0000221D615A6138BD64000020034613F83C
:10108C00012B002AFBD1181A013870471D000A08E1
:10109C005D000A0889000A088D000A08000000009B
:1010AC000000000000000000ED030A08EF030A082E
:1010BC00626175640053657269616C0055534253EB
:1010CC00657269616C310074797065007061726170
:1010DC006D00636D6400696400686E640073747203
:1010EC006D0066696C74006C766C006164644861B8
:1010FC006E646C65720072656D6F766548616E64C6
:10110C006C657200656E756D48616E646C657273AA
:10111C00004A534F4E53747265616D4C6F67486152
:10112C006E646C6572006170700025303130752012
:10113C00005D20002564002C200028293A20002086
:10114C005B00636F6465203D200025690064657455
:10115C0061696C73203D20000D0A0066006C6E0006
:10116C00666E00636F64650064657461696C006E23
:10117C006F6E6500747261636500696E666F0077EF
:10118C0061726E006572726F720070616E696300DD
:10119C00616C6C005A00252B3033643A2530327563
:1011AC000025592D256D2D25645425483A254D3A99
:1011BC002553257A0061736374696D650000000026
:1011CC000000000000000000A9060A0899060A08A1
:1011DC009B060A08000000000000000065070A08D2
:1011EC00B5070A08C3070A0845040A08A1070A0834
:1011FC0067070A087D070A08AF070A0893070A0859
:10120C0061070A080000000000000000FD080A0841
:10121C004D090A085B090A0845040A0811090A085D
:10122C0033090A081F090A0847090A08FF080A08AF
:10123C0003090A080000000000000000010A0A0867
:10124C004B0A0A08230A0A08030A0A082B0A0A0886
:10125C00330A0A083B0A0A08430A0A08000000007D
:10126C00000000001B0B0A08110B0A08070B0A08E8
:10127C00850A0A08EF040A08FB0A0A08EF0A0A089A
:10128C00E70A0A08DD0A0A08D30A0A088F0A0A08BC
:10129C000000000000000000390B0A08430B0A088C
:1012AC004D0B0A08570B0A08610B0A086D0B0A084C
:1012BC00790B0A08850B0A088D0B0A08970B0A088C
:1012CC00A10B0A0800000000000000000000000054
:1012DC000000000000000000000000000000000002
:1012EC0000000000000000000000000000000000F2
:1012FC0000000000000000000000000000000000E2
:10130C0000000000000000000000000000000000D1
:10131C0000000000000000000000000000000000C1
:10132C000000000043000000DD000A082D040A083C
:10133C00FD040A080D050A0845050A08250B0A08CC
:10134C00F10B0A08A10C0A08E50C0A08650D0A083D
:10135C00E90D0A08AD0E0A08710F0A08000000001A
:04136C00000000007D
:041370000000000079
:10137400C1110A0800000000D0120A08F0120A087D
:1013840010130A0800000000000000000000000024
:101394000000000030130A080000000000000000F4
:1013A4000000000000000000000000000000000039
:1013B4000000000000000000000000000000000029
:1013C4000000000000000000000000000000000019
:0813D4000000000004000020ED
:1013DC00FFFFFFFF00000102030405060708090ACE
:1013EC000B0C0D0E0F101112131415161718191AC9
:0813FC001B1C1D1E1F20280010
:0414040078563412D0
:04000005080A001CC9
:00000001FF
