:02000002D0002C
:1040000000400D00FC6D0D00000006000D000501D4
:0840100004017E050000000020
:0440180054680D00DB
:10401C0009480A49884208B505D0094A824202D0AB
:10402C00121A02F09FFB0748074A0021121A02F0ED
:10403C00A4FB014808BD00BFA4E20320406D0D00A5
:10404C0034E3032034E30320F0E7032070B501F0E0
:10405C00CDFA074C074BE41AA40800251E46A542CE
:10406C0004D056F8253098470135F8E770BD00BFED
:10407C00346D0D00F86C0D0000F07EB808B500F042
:10408C0035FABDE8084001F07FBA00F02FBE00F011
:10409C0035BE00F033BE0078B0FA80F040097047AE
:1040AC0001230370704708B500F0F8FD20B1002023
:1040BC00BDE8084000F002BE08BD00221146406871
:1040CC0000F09CBD2DE9F843254C00231A461946F7
:1040DC00606800F09BFD00236068224C1A4619466C
:1040EC0000F074FD0020266800F02AFC4FF0000957
:1040FC0080460027002000F023FCB0EB080061EBA9
:10410C000901B94208BFB04206D21548FFF7D5FFE6
:10411C0010B900F0ABFDEDE71148FFF7CEFF00F052
:10412C00ADFD0020246800F00BFC0027064600259E
:10413C00002000F005FC801B61EB0701A94208BFC1
:10414C00A04202D200F0AAFD30B100F0A7FD044855
:10415C00FFF7B3FFBDE8F88300F088FDE8E700BF88
:10416C00E8E30320A8E2032008B5FFF7ABFFBDE8A6
:10417C000840FFF798BF000070B51C4C1C4E1D4D3D
:10418C0001F0E6FD4FF4165101F0D6FD2088012117
:10419C0002F0F0F8184B0021188802F0EBF8174BDE
:1041AC000221188802F0E6F83088012102F0E2F8CA
:1041BC002888012102F0DEF83088002102F0EBF8AB
:1041CC002888002102F0E7F80021208802F0E3F8AB
:1041DC00FFF7CAFF01F0E8F8094B186001F0B8FDD1
:1041EC000849BDE8704001F04CB800BFACE20320B8
:1041FC0098E30320B0E20320A4E20320BCE20320F6
:10420C007CE3032028690D0010B500F03FFD00F0A1
:10421C0045FD044650B900F041FD064823462246B0
:10422C0021464068BDE8104000F0F8BC00F01EFDCF
:10423C00EDE700BFE8E3032010B50C4C012120880A
:10424C0002F0A9F841F2883001F0C0F8084B188848
:10425C0002F0BAF8074B18604FF47A7001F0B6F818
:10426C0020880021BDE8104002F095B8ACE2032094
:10427C00A4E2032050E3032038B5046805467CB162
:10428C006368013B63605BB9236820469B68984771
:10429C00A368013BA3601BB923682046DB689847E1
:1042AC00284638BD30B5A5B0FFF70CFF002800F04C
:1042BC00D080FFF7F8FE4FF4FA6001F087F86849F8
:1042CC001AA801F09BFD1C9C01F042FD65490546B6
:1042DC0016A800F0AEFE0A22214612A800F00CFF30
:1042EC0012A916A800F058FF0168284600F0C9FF73
:1042FC0012A800F057FE16A800F054FE01F054F876
:10430C000A22014612A800F00AFF12A916A800F012
:10431C00CFFE554916A800F04BFF014602A800F04D
:10432C00C7FE16A800F03EFE12A800F03BFE4F4957
:10433C000AA800F07EFE4E4B0A22196806A800F06F
:10434C00DBFE06A90AA800F027FF4A4900F030FF5F
:10435C00494B0A22196805460EA800F0CDFE0EA99D
:10436C00284600F019FF454900F022FF444B0A2271
:10437C001968054612A800F0BFFE12A9284600F0E5
:10438C000BFF404900F014FF3F4B0A221968054609
:10439C0016A800F0B1FE16A9284600F0FDFE014655
:1043AC0002A800F0E6FE16A800F0FCFD12A800F032
:1043BC00F9FD0EA800F0F6FD06A800F0F3FD0AA822
:1043CC0000F0F0FD314916A800F033FE304B0A2204
:1043DC00196812A800F090FE12A916A800F0DCFED5
:1043EC002C4900F0E5FE2C4900F0D6FE014602A84F
:1043FC0000F0BFFE12A800F0D5FD16A800F0D2FD0B
:10440C00264916A800F015FE0A22214612A800F033
:10441C0073FE12A916A800F0BFFE014602A800F018
:10442C00A8FE12A800F0BEFD16A800F0BBFD1C4BA8
:10443C00029A1B781B498DF8003016A83C2301F01A
:10444C0031FA17A8FFF718FFFFF7DEFE02A800F0FD
:10445C00A9FD00F0A9FF144B3C30186025B030BD0D
:10446C00E8E303205A690D0031690D003A690D002B
:10447C00B8E203203E690D00C4E2032043690D003D
:10448C00C8E2032048690D003CE303204D690D0090
:10449C00A8E2032052690D0084E3032058690D0043
:1044AC0078E3032061690D0058E303201FB50C4B22
:1044BC001B7804468BB1FFF705FE70B1094B2268DF
:1044CC001B788DF8003008493C2302A801F0EAF96A
:1044DC0003A8FFF7D1FEFFF797FE04B010BD00BF95
:1044EC0054E3032078E3032070690D002DE9F041BB
:1044FC0094B000F059FF8F4D8F49286004A800F04C
:10450C0098FD8E4B1C7884B901221A7021462246E4
:10451C0010A8109400F01CFA109B1E2B05D1884B90
:10452C0003221A7008225C809A80864B864A0026E9
:10453C001E70864B12681B683C2404FB032400F09D
:10454C0033FF844202DAFFF7ADFE0126804F814C27
:10455C002B683A6821689A1A3C234B439A42C0F262
:10456C008E80FFF769FE7C497C4D10A800F061FD40
:10457C007B4B0A2219680CA800F0BEFD0CA910A8F0
:10458C0000F00AFE0146774800F0F3FD0CA800F09D
:10459C0009FD10A800F006FD664A2B6812683A6007
:1045AC00714A724F11683A6801334A4393422B6047
:1045BC0003DA6F4B1B68012B61D1002E5FD1FFF723
:1045CC0081FD002858D000F0EFFE2A6821684FF0DA
:1045DC003C08571E08FB01F107FB1101654F0A222D
:1045EC0010A800F09CFD10A9384600F06CFD10A836
:1045FC0000F0D8FC6049384600F0BFFD0A22216863
:10460C0010A800F079FD10A9384600F0B2FD10A8F2
:10461C0000F0C8FC5349384600F0ABFD574B5849E5
:10462C001B788DF800303A68434610A801F03AF92F
:10463C0011A8FFF721FE01F08BFB5249804610A810
:10464C0000F0F7FC39460CA800F032FD0CA910A8BC
:10465C0000F0A2FD0168404600F013FE0CA800F02B
:10466C00A1FC10A800F09EFC47493E4800F033FD29
:10467C002E60FFF7C9FD02E03B6801333B60434904
:10468C00434F444E04A800F0A5FD00282FD0246809
:10469C003C2303FB04F500F087FE3C683E49001BFD
:1046AC002C1A0CA800F0C5FC0A22214608A800F020
:1046BC0023FD08A90CA800F06FFD014610A800F01E
:1046CC00F7FC10A8FFF7F2FE10A800F06BFC08A88E
:1046DC0000F068FC0CA800F065FC022233688DF831
:1046EC002020012202930194009208AB18E000F004
:1046FC005BFE2A49386010A800F09BFC10A8FFF75D
:10470C00D5FE10A800F04EFC22683C2353433268BF
:10471C0002920221012201938DF8301000920CAB11
:10472C001F4910A800F07EFB04A800F03BFC14B05D
:10473C00BDE8F0819CE3032078690D0038E3032089
:10474C00A8E30320B4E2032058E30320C8E20320CB
:10475C007CE30320B8E2032081690D0074E303209D
:10476C0050E3032040E30320C4E20320C0E2032013
:10477C003CE3032064E303207C690D0078E3032011
:10478C0070690D0083690D00AB6A0D0092690D0014
:10479C0094E3032080E3032096690D00AC690D00BF
:1047AC00B6E203202DE9F843234BDFF8A480234E17
:1047BC00234DDFF8A09000241C60224B01271F70B2
:1047CC0000F05EF82049404600F033FC4046DFF82C
:1047DC0088803246294601F051FE4946404600F099
:1047EC0028FC4046DFF874803246294601F046FE2C
:1047FC004946404600F01DFC32462946404601F031
:10480C003DFE01F07BFD2346224642F67A1101F073
:10481C007DFD01F073FD23462246394601F07EFDF5
:10482C000A4B4FF6FF721C705C809A800320BDE827
:10483C00F84300F085B900BF80E3032034E3032084
:10484C00B14F0D0078E30320B9690D005CE3032040
:10485C0084E30320AB6A0D0040E3032064E30320F0
:10486C0008B5024B1B689B68019308BD68020300E6
:10487C0008B5024B1B68DB68019308BD6802030096
:10488C0008B5024B1B681B68019308BD2C02030082
:10489C0008B5024B1B685B68019308BD2C02030032
:1048AC0008B5024B1B689B68019308BD2C020300E2
:1048BC0008B5024B1B68DB68019308BD2C02030092
:1048CC0008B5024B1B681B69019308BD2C02030041
:1048DC0008B5024B1B681B6B019308BD2C0203002F
:1048EC0008B5024B1B68DB69019308BD300203005D
:1048FC0008B5024B1B681B6A019308BD300203000C
:10490C0008B5024B1B685B68019308BD18020300D5
:10491C0008B5024B1B685B69019308BD18020300C4
:10492C0008B5024B1B68DB69019308BD1802030034
:10493C0008B5024B1B689B6D019308BD1802030060
:10494C0008B5024B1B68DB6D019308BD1802030010
:10495C0008B5024B1B68DB6E019308BD34020300E3
:10496C0008B5024B1B689B68019308BD4802030005
:10497C0008B5024B1B681B69019308BD4802030074
:10498C0008B5024B1B685B69019308BD4802030024
:10499C0008B5024B1B681B6B019308BD4802030052
:1049AC0008B5024B1B685B6C019308BD4802030001
:1049BC0008B5024B1B685B69019308BD64020300D8
:1049CC0008B5024B1B681B68019308BD3C02030031
:1049DC0008B5024B1B68DB68019308BD3C02030061
:1049EC0008B5024B1B681B69019308BD3C02030010
:1049FC0008B5024B1B685B69019308BD3C020300C0
:104A0C0008B5024B1B689B69019308BD3C0203006F
:104A1C0008B5024B1B68DB69019308BD3C0203001F
:104A2C0008B5024B1B681B6A019308BD3C020300CE
:104A3C0008B5024B1B689B6A019308BD3C0203003E
:104A4C0008B5024B1B681B6A019308BD28020300C2
:104A5C0008B5024B1B685B6A019308BD2802030072
:104A6C0008B5024B1B689B6A019308BD2802030022
:104A7C0008B5024B1B68DB6A019308BD28020300D2
:104A8C0008B5024B1B681B6B019308BD2802030081
:104A9C0008B5024B1B685B6B019308BD2802030031
:104AAC0008B5024B1B681B6C019308BD2802030060
:104ABC0008B5024B1B685B6C019308BD74020300C4
:104ACC0008B5024B1B681B68019308BD4C02030020
:104ADC0008B5024B1B685B68019308BD4C020300D0
:104AEC0008B5024B1B681B69019308BD4C020300FF
:104AFC0008B5024B1B685B69019308BD4C020300AF
:104B0C0008B5024B1B689B69019308BD4C0203005E
:104B1C0008B5024B1B68DB69019308BD4C0203000E
:104B2C0008B5024B1B681B6A019308BD4C020300BD
:104B3C0008B5024B1B681B68019308BD20020300DB
:104B4C0008B5024B1B685B68019308BD200203008B
:104B5C0008B5024B1B685B69019308BD200203007A
:104B6C0008B5024B1B68DB6C019308BD20020300E7
:104B7C0008B5024B1B685B6D019308BD2002030056
:104B8C0008B5024B1B689B6D019308BD2002030006
:104B9C0008B5034B1B68D3F88830019308BD00009F
:104BAC002002030008B5034B1B68D3F89430019323
:104BBC0008BD00002002030008B5034B1B68D3F8A6
:104BCC00A030019308BD00002002030008B5024B81
:104BDC001B685B68019308BD4002030008B5024BDB
:104BEC001B689B68019308BD4002030008B5024B8B
:104BFC001B68DB68019308BD4002030008B5024B3B
:104C0C001B681B69019308BD4002030008B5024BE9
:104C1C001B685B69019308BD4002030008B5024B99
:104C2C001B689B69019308BD4002030008B5024B49
:104C3C001B68DB69019308BD4002030008B5024BF9
:104C4C001B681B6A019308BD4002030008B5024BA8
:104C5C001B681B6B019308BD4002030008B5024B97
:104C6C001B685B6B019308BD4002030008B5024B47
:104C7C001B689B68019308BD4402030008B5024BF6
:104C8C001B68DB68019308BD4402030008B5024BA6
:104C9C001B681B69019308BD4402030008B5024B55
:104CAC001B685B69019308BD4402030008B5024B05
:104CBC001B681B6A019308BD4402030008B5024B34
:104CCC001B68DB6A019308BD4402030008B5024B64
:104CDC001B681B6B019308BD4402030008B5024B13
:104CEC001B68DB6B019308BD4402030008B5024B43
:104CFC001B681B68019308BD1C02030008B5024B1E
:104D0C001B685B68019308BD1C02030008B5024BCD
:104D1C001B689B68019308BD1C02030008B5024B7D
:104D2C001B68DB6A019308BD1C02030008B5024B2B
:104D3C001B681B6B019308BD1C020300002211466B
:104D4C004068FFF77BBF002211464068FFF786BF23
:104D5C0000224068FFF77ABF002281F00101406811
:104D6C00FFF764BF00231A4619464068FFF756BF89
:104D7C0000231A4619464068FFF748BF0022114627
:104D8C004068FFF73BBF002211464068FFF726BF83
:104D9C00002202214068FFF729BF00231A46406811
:104DAC00FFF714BF024B03225A60024A1A60704785
:104DBC00A0E30320C8690D00704710B5102104460C
:104DCC0001F061FB204610BD70B5084B0360044632
:104DDC0000250E4640F80C5FFFF7DAFD30462671D1
:104DEC00FFF77EFDA560204670BD00BFFC690D007D
:104DFC000079FFF77DBD10B50024047044800029B4
:104E0C004FF6FF74848007DD0139994209D232F8DC
:104E1C0011308380012301E002D10223037010BD05
:104E2C00418010BD70B586B016461A460023029319
:104E3C000C9B01930D460B9B009304460A9B314639
:104E4C002846FFF7B9FE33462A46014604A8FFF769
:104E5C00D2FF064B0498BDF8142018609A801A688B
:104E6C009B8822602046A38006B070BDA8E3032077
:104E7C00044B00204FF6FF72187058809A80FFF791
:104E8C005FBE00BFA8E3032010B5044601F0D3FCBD
:104E9C00013823182046984206D20278197800F877
:104EAC00011B03F80129F6E710BD2DE9F041931E13
:104EBC00232B15468CB034BF15460A2500230A2D2A
:104ECC000C468DF82C3007D1984205DA2D2301F1D0
:104EDC0001080B70404201E0B0B1A0460DF12B0669
:104EEC0001272A46014601A801F028FC029B0198E3
:104EFC00092BCCBF3722302252FA83F306F8013942
:104F0C0001370028EDD106E030238DF82B30A04678
:104F1C000DF12A0602273A46711C404601F022FC8C
:104F2C0020460CB0BDE8F08170B50C46911E2229CC
:104F3C0020D82546294610B9234430220EE0B0FB78
:104F4C00F2F602FB1600C1B205F8011B092894BF4A
:104F5C003031573105F8011C3046EBE7994202D24B
:104F6C0001F8012BFAE7002320460B70FFF78CFFAA
:104F7C00204670BD002070BD38B5031E0C4615468A
:104F8C000BDAB3F1004F4FF02D0214BF5842184604
:104F9C0001230A702A46194400E00123FFF7C4FFDD
:104FAC00204638BD10B504460068FFF7A7FE204622
:104FBC0010BD10B50446006808B1FFF79FFE002332
:104FCC002360A360636010BD38B504460D460068CD
:104FDC000131FFF79BFE10B184E82100012038BDA0
:104FEC0010B50368044613B143688B4207D22046C0
:104FFC00FFF7EAFF20B1A3680BB9226813700120F8
:10500C0010BD70B50E46114604461546FFF7E8FF75
:10501C0018B92046FFF7CDFF09E02A463146A560B6
:10502C00206801F09FFB2268A3680021D154204620
:10503C0070BD38B50023044603604360836003737E
:10504C000D4639B1084601F0F6FB294602462046CA
:10505C00FFF7D7FF204638BD38B5054600680C462B
:10506C0060B16A688B689A4206D3096801F0C0FB8C
:10507C00A368AB6000230AE0FFF740FE23682B60B7
:10508C0063686B60A368AB60002323606360A360FC
:10509C0038BD884210B50B46044607D0096819B1D3
:1050AC009A68FFF7AEFF01E0FFF783FF204610BDC3
:1050BC0010B5002304460360436083600373FFF75D
:1050CC00E8FF204610BD884210B5044601D0FFF71A
:1050DC00C3FF204610BD38B505460C4641B1084605
:1050EC0001F0A9FB214602462846FFF78AFF01E0A2
:1050FC00FFF75FFF284638BD10B5044600238AB081
:10510C0023606360A3602373084601A9FFF734FF93
:10511C0001A92046FFF7DFFF20460AB010BD10B5ED
:10512C00044600238AB023606360A360237308469F
:10513C0001A9FFF7BAFE01A92046FFF7CCFF2046D4
:10514C000AB010BD70B504460E4609B9002070BDFA
:10515C006AB18368D5182946FFF742FF0028F5D0BD
:10516C002068A3683146184401F042FBA560012079
:10517C0070BD8A680968FFF7E5BF38B505460C466F
:10518C00084641B101F057FB214602462846BDE8CE
:10519C003840FFF7D7BF38BD10B58A680968044698
:1051AC00FFF7D0FF10B92046FFF703FF204610BDD4
:1051BC0038B504460D4641B1084601F03CFB294682
:1051CC0002462046FFF7BEFF10B92046FFF7F1FE5E
:1051DC00204638BD08B582680B4612B919B90120B2
:1051EC0008BD11B90368187802E0006801F0F6FAFE
:1051FC00B0FA80F0400908BD0B68036013B15A681F
:10520C0001325A6070470000024800230360FFF728
:10521C00C7BB00BFB0E30320F8B506460D468F1898
:10522C000024BD420CD0336815F8011B9B68304636
:10523C009847002801DB0444F3E7002C08BF044620
:10524C002046F8BD70B505460C46084649B101F03C
:10525C00F2FA2B68024621462846DB68BDE870400E
:10526C00184770BD03689B68184738B50D21054673
:10527C00FFF7F8FF0A2104462846FFF7F3FF204406
:10528C0038BD38B50546FFF7DDFF04462846FFF765
:10529C00ECFF204438BD30B58BB00B4600218DF8A7
:1052AC002410012A98BF0A220DF12304B3FBF2F556
:1052BC0005FB123303F0FF03092B94BF3033373354
:1052CC00DBB2214604F801392B46002DEED1FFF755
:1052DC00B9FF0BB030BD10B42AB903685DF8044BAC
:1052EC009B68C9B21847D2B25DF8044BFFF7D3BF25
:1052FC00FFF7F1BF2DE9F04107460E4615462AB9D6
:10530C000368C9B29B68BDE8F04118470A2A02D16C
:10531C00002901DA04E0D2B2BDE8F041FFF7BBBFCF
:10532C002D21FFF79FFF2A46044671423846FFF7AE
:10533C00B2FF2044BDE8F081FFF7DCBF014B024A0D
:10534C001A607047B4E30320776A0D0008B500209B
:10535C00FFF7BCFC28B1FFF7A1FC80F00100C0B244
:10536C0008BD012008BD10B50020FFF7E1FA044686
:10537C0068B9FFF7DDFB01280BD12046FFF700FCD5
:10538C0038B9FFF7E3FF30B9FFF770FCF9E70120FC
:10539C0010BD002010BDFFF7D9FF0020FFF7C8FAA1
:1053AC00003018BF012010BD08B5FFF7DCFFBDE8C9
:1053BC000840FFF7B5BA0000024B1A68024B1A609E
:1053CC00704700BFCCE20320B8E303200021FFF7B5
:1053DC00BFBB10B58368044613B10322014698473E
:1053EC00204610BD10B50446FFF7F3FF204610BD54
:1053FC0013B50B46044603C88DE8030093E803007D
:10540C0084E803009DE8030083E8030002B010BDAC
:10541C000348044A04490023836001F02FB800BFFD
:10542C00BCE3032034E30320F1530D007047007DEF
:10543C0070470000037D1BB18369B3F1004F02D1AB
:10544C009FED050A704707EE903A9FED047AF8EE4F
:10545C00E77A87EE870A7047000000000000C84218
:10546C00037D1BB1036AB3F1004F02D19FED050A16
:10547C00704707EE903A9FED047AF8EEE77A87EEE4
:10548C00870A7047000000000000C84270B50D4646
:10549C0006460A2281682846FFF74EFF2C21044657
:1054AC002846FFF7DFFE0A220444F1682846FFF77E
:1054BC0043FF204470BDA0F10400FFF7E7BF10B517
:1054CC002821044600F0DFFF204610BD037D7BB190
:1054DC00436A002B0CDB07EE903ADFED076A9FED79
:1054EC00070AB8EEE77AC7EE267A27EE800A7047ED
:1054FC00BFEE000A704700BF00FF7F470000C842A4
:10550C00037D7BB1C369002B0CDB07EE903ADFED1A
:10551C00076A9FED070AB8EEE77AC7EE267A27EE00
:10552C00800A7047BFEE000A704700BF00FF7F473C
:10553C000000C84230B50D4600F110040FCD0FC469
:10554C0095E8030084E80300012030BD08B50C4B3E
:10555C0033B100F0FDFB03681B699847002809DC98
:10556C00084B63B100F0F8FC03681B6998470028EE
:10557C0003DC08BDAFF30080F2E7AFF3008008BD99
:10558C00000000000000000008B5FFF7DFFFFFF788
:10559C00BFF9014B186008BD34E7032007B50023A1
:1055AC0000931A466FF07701FFF7FCFA03B05DF831
:1055BC0004FB000007B543880A2B08D0502B09D1F7
:1055CC00094B1B683BB103B05DF804EB1847FFF7C0
:1055DC00E5FF06E0002300931A466FF07701FFF712
:1055EC00E1FA03B05DF804FBCCE3032010B5FFF740
:1055FC0087F9044601F0CAF8074B13B12046AFF304
:10560C00008000210448FFF769FB00210348BDE836
:10561C001040FFF7BDBA00BF00000000C1550D00DF
:10562C0070470020704710B51021044600F02BFF86
:10563C00204610BD08B508B1FFF7F5FF08BD0022E4
:10564C00026010B54FF69C728280B1F904408480E0
:10565C008A8002680C6804600A6010BD10B50446AC
:10566C000068FFF74BFB204610BD38B5C468F4B199
:10567C002378022B03D104F10C00FFF7EFFF6568D0
:10568C0035B12846FFF7A5FE1021284600F0FBFE99
:10569C00A56835B12846FFF79CFE1021284600F07E
:1056AC00F2FE20461421BDE8384000F0ECBE38BDB7
:1056BC0013B5044691E8050000234B600B60206095
:1056CC00626001A801930093FEF7D6FD204602B05C
:1056DC0010BDF7B50C4602AD54F8043B45F8083D37
:1056EC0006460F4601A82146FFF786FD294630469F
:1056FC00FFF7DEFF01A8FEF7BFFD2046FEF7BCFD5D
:10570C003846082100F0BFFE304603B0F0BD000063
:10571C0038B500230446036010200D46FEF7B5FC97
:10572C0028B1012343608360024B0360C560206095
:10573C00204638BD4C6B0D00826810B50AB900F0DC
:10574C00A4FEC368BDE81040184708B5006800F116
:10575C001001FFF7F1FF08BD826810B50AB900F01F
:10576C0094FEC368BDE81040184708B5006800F106
:10577C001001FFF7F1FF08BD38B5002383608B687B
:10578C0004460D462BB102229847EB68E360AB68E8
:10579C00A360204638BD0000F0B589B004686846A7
:1057AC00FFF74DFF00238DF808304FF00202D4E8CC
:1057BC004F3F002B03D1C4E8412F0029F7D102D071
:1057CC008DF8083063E014F10C0503D069462846C7
:1057DC00FFF735FFBFF35F8F01236370002004F1E7
:1057EC000803BFF35F8F53E8006F43E80002002A01
:1057FC00F9D1BFF35F8F002E49D0FFF7B1F920B17B
:10580C0029463046FFF798FF3AE0314602A8FFF7E9
:10581C00B3FFE068B4F9105008B100F0F1FF069046
:10582C001020ADF81C50FEF730FC0546E8B10027FF
:10583C0087601820FEF729FC044688B10146876072
:10584C0002A8FFF7D5FD049BA268A360059B0492F8
:10585C0006A9E268E36004F110000592FFF7EFFE81
:10586C000D4BEB600D4B2C60AB6006A8FFF7F6FE02
:10587C0002A8FFF7AEFD002229460948FFF778F988
:10588C003046FFF7A6FD1021304600F0FCFD6846BF
:10589C00FFF7E4FE09B0F0BD57570D00CD590D00D0
:1058AC00B15F0D002DE9F04F8BB006460F469046C8
:1058BC0099469DF850A0FFF7F1F907AD834630BB30
:1058CC004FF62E73059005A92846ADF81830FFF752
:1058DC00B6FE1420FEF7D9FB044658B10223037020
:1058EC0001234370C0F804B0C0F808B029460C304E
:1058FC00FFF7A5FE3046214640F8044BFFF708FFA2
:10590C002846FFF7ABFE05A8FFF7A8FE52E00024DF
:10591C000C2314206C60AC600793FEF7B6FB0146B9
:10592C0018B1047044704460846004A80391FFF7BC
:10593C00EFFE224B08930820FEF7A7FB044628B184
:10594C00039B40F8043B04A9FFF756FC00955FFA53
:10595C008AF34A46414638460994FFF7A7F920B91D
:10596C00039B5B7803F0FF0283B1039B059304A9AF
:10597C0006A8FFF741FC05A93046FFF799FE06A8DB
:10598C00FEF77AFC04A8FEF777FC13E04FF69C7345
:10599C0005A903A80592ADF81830FFF7FDFE05A880
:1059AC00FFF75CFE05A80999FFF793FE06A8FEF722
:1059BC0063FCDAE730460BB0BDE8F08F3D5B0D00C1
:1059CC00022AF8B5044606D0032A17D0012A22D1A0
:1059DC000B6803601FE018200E68FEF756FB0546A7
:1059EC0050B13146FFF7C8FE3069B6F9147008B1F2
:1059FC0000F006FF2861AF8225600CE0046854B10A
:105A0C0004F11000FFF72AFE2046FFF7E2FC1821F4
:105A1C00204600F038FD0020F8BD38B50023836027
:105A2C008B6804460D462BB102229847EB68E36065
:105A3C00AB68A360204638BD022A70B5044606D078
:105A4C00032A11D0012A18D10B68036015E0142029
:105A5C000E68FEF71AFB054620B13146FFF7DDFF55
:105A6C00337C2B74256008E0046834B12046FFF7C2
:105A7C00B0FC1421204600F006FD002070BD000093
:105A8C00F0B5002387B00C46BFF35F8F50E8006F72
:105A9C0040E80032002AF9D1BFF35F8F002E3FD0CF
:105AAC001846FFF75DF8074620B121463046FFF750
:105ABC0053FE2EE0314601A8FFF7AFFF23788DF897
:105ACC0014301020FEF7E1FA0546D0B1876014209F
:105ADC00FEF7DBFA044678B18760014601A8FFF7B0
:105AEC0087FC039BA268A360049B0392E268E360BB
:105AFC009DF81430049223740A4BEB600A4B2C6013
:105B0C00AB6001A8FFF765FC002229460748FFF7A8
:105B1C002FF83046FFF75DFC1021304600F0B3FC47
:105B2C0007B0F0BD77570D00455A0D00B15F0D0061
:105B3C0030B585B004460D4668461146FFF7C9FDE1
:105B4C007CB124B228460DB100F05AFE029002A995
:105B5C006846ADF80C40FFF71FFE02A8FFF77EFD6C
:105B6C001DE000988DF808404FF00102D0E84F3F3F
:105B7C00A34203D1C0E8412F0029F7D102D08DF800
:105B8C0008300CE010F10C014FF0010318BF037347
:105B9C00BFF35F8F043000F8033CFFF771FF01A8DF
:105BAC00FEF76AFB05B030BD704710B518210446EE
:105BBC0000F069FC204610BDF0B5037D062B8DB0BE
:105BCC000E4600F104074FF0000402D000F1080566
:105BDC0018E00CAD394605F8304D2F232A460A2023
:105BEC00FEF7E6FE284600F026FE33680246DB6828
:105BFC002946304698470FE024B12E213046FFF756
:105C0C0031FB044415F8011D0A223046FFF770FBE6
:105C1C00BD420444F0D120460DB0F0BD10B5054B8B
:105C2C000446112240F8043B002100F0A6FD20465A
:105C3C0010BD00BF686B0D000346074A10B543F852
:105C4C00042B01F1100251F8044B43F8044B914220
:105C5C00F9D10A781A7010BD686B0D0010B59DF85B
:105C6C00084044EA032343EA024242EA0161042366
:105C7C004160037510BD37B50D788B784A78C978BB
:105C8C0000912946FFF7EAFF03B030BD417470471D
:105C9C00704708B50021007CFEF732FF30EA200087
:105CAC0028BF4FF0FF3008BD08B50121007CFEF77E
:105CBC0027FF30EA200028BF4FF0FF3008BD08B5A1
:105CCC00007CFEF715FF20EAE07008BD08B5007CEB
:105CDC00FEF706FF20EAE07008BD007CFEF720BF4F
:105CEC0010B51421044600F0CEFB204610BD38B58B
:105CFC000446007C0D46FEF7FBFE002801DC607CB0
:105D0C0028B12946207CFEF703FF20EAE07038BD5D
:105D1C0010B50446002363604FF47A73A360054BFF
:105D2C00236001230846217463741146FEF7C8FEF4
:105D3C00204610BD7C6B0D000022007CFEF7C8BE17
:105D4C0010B514220446002100F017FD204610BDAA
:105D5C0030B50E4D87B001A8FFF7F2FF296811F09E
:105D6C00010410D12846FEF796F960B101AA21462C
:105D7C000748FFF7CDFF2846FEF792F9054A06497A
:105D8C00034800F07BFB024807B030BDD0E3032092
:105D9C00D4E3032034E303209D5C0D000022114664
:105DAC004068FEF74BBF002211464068FEF756BF15
:105DBC0000224068FEF74ABF002281F001014068D2
:105DCC00FEF734BF00231A4619464068FEF726BF7B
:105DDC0000231A4619464068FEF718BF00221146E8
:105DEC004068FEF7FBBE002202214068FEF7FEBEB3
:105DFC0000231A464068FEF7E9BE0000F0B51B4BC5
:105E0C00036000250F462833182689B0436085604F
:105E1C00C560324629460446103000F0AEFC2A46D6
:105E2C0029467868FEF7EAFE08B9A0601BE029460F
:105E3C00324602A80095019500F09FFC02A9684625
:105E4C00ADF80860FEF734FE10B10123A3600AE040
:105E5C00009B019AA360E2600BB90223A36002A924
:105E6C002046FFF767FB204609B0F0BD186B0D000C
:105E7C0038B5084C28252A460021204600F07DFC28
:105E8C004FF0FF336360044B258004225A60034AB1
:105E9C001A6038BDF0E30320E8E30320AC6B0D007F
:105EAC0070474174704708B5007CFEF7C1FD20EACD
:105EBC00E07008BD08B5007CFEF792FD20EAE070AA
:105ECC0008BD08B5007CFEF79BFD30EA200028BF1A
:105EDC004FF0FF3008BD08B5007CFEF789FD30EAB5
:105EEC00200028BF4FF0FF3008BD007CFEF790BDAE
:105EFC0010B51421044600F0C6FA204610BD70B54A
:105F0C00457C04460E4625B9007CFEF791FD002821
:105F1C0005DD3146207CBDE87040FEF759BD2846B2
:105F2C0070BD000010B504460846114600226260A0
:105F3C004FF47A72A260054A2260012220746274C6
:105F4C001A46FEF73DFD204610BD00BFE06B0D006C
:105F5C00007CFEF765BD000038B50C4D296811F0CA
:105F6C00010411D12846FEF796F868B1084A094B8E
:105F7C0009482146FFF7D6FF2846FEF791F8074A55
:105F8C000749054800F07AFA034838BDB0E403200D
:105F9C00B4E403202CE4032018E4032034E30320AE
:105FAC00AD5E0D0010B5836804460BB900F06DFAB8
:105FBC00C3689847A3681BB1032221462046984723
:105FCC0020461021BDE8104000F05DBA7047F8B5CE
:105FDC00064615460C468F18BC4206D0336814F89A
:105FEC00011B9B6830469847F6E72846F8BD00220F
:105FFC00007CFEF725BD0021007CFEF729BD0021A9
:10600C00007CFEF72DBD0021007CFEF731BD002188
:10601C00007CFEF735BD10B51421044600F033FAB0
:10602C00204610BD10B504464FF47A730846A360A1
:10603C000021044B207461602360FEF731FD204683
:10604C0010BD00BF106C0D000021007CFEF720BDC0
:10605C00002211464068FEF7F1BD0022114640684F
:10606C00FEF7FCBD00224068FEF7F0BD002281F077
:10607C0001014068FEF7DABD00231A460121406891
:10608C00FEF7CCBD00231A4619464068FEF7BEBD8C
:10609C00002211464068FEF7B1BD0022114640684F
:1060AC00FEF79CBD002202214068FEF79FBD002335
:1060BC001A464068FEF78ABD38B5054688B10468B3
:1060CC004CB1A3681BB103222146204698471021EE
:1060DC00204600F0D8F928461421BDE8384000F0DD
:1060EC00D2B938BD10B103685B681847704710B55A
:1060FC0003680446BBB15868FEF732FC78B92368D4
:10610C005A7C12B95868FEF733FC23685868FEF7BE
:10611C0037FC20680023236028B1FFF7CDFF2068EF
:10612C0008B1FFF7C9FF204610BD000038B50C4B75
:10613C0003600446D0F8CC0108B1FDF7AAFFD4F8EF
:10614C00C45135B12846FFF7D2FF0421284600F090
:10615C009AF9A06808B1FFF7C5FF204638BD00BF0B
:10616C00386C0D0038B50E4C0E4B23600025022305
:10617C0004F5E4706360A560C4F8C451C4F8C85158
:10618C00FEF70EFC084BC4F8CC5184F8D0512360B8
:10619C002046064A0649BDE8384000F06FB900BFFA
:1061AC0038E503206C6C0D00386C0D0034E30320D3
:1061BC0039610D0000231A464068FEF707BD002226
:1061CC0002214068FEF712BD002211464068FEF71E
:1061DC0005BD002211464068FEF710BD00231A468B
:1061EC0019464068FEF712BD00231A46194640684E
:1061FC00FEF714BD002281F001014068FEF716BDC8
:10620C0000224068FEF722BD002211464068FEF7CE
:10621C0025BD002211464068FEF710BD2DE9F04364
:10622C00002495B016460D460746FFF7F7FC2146AD
:10623C0020220CA8009400F0A0FA40230C932146D5
:10624C006B460CAA3046FEF713FB0446002844D1DB
:10625C00024601216868FEF7D1FC022180462246E5
:10626C006868FEF7CBFC009E81462146002E34D098
:10627C00002932D17368022B02D00A2B09D02AE0F4
:10628C00B8F1000F27D0716938460431FFF7F3FCE1
:10629C0020E0B9F1000F1ED07469112201A800F0A2
:1062AC006CFA06238DF8143001AD04F10803183490
:1062BC00186859682A4603C20833A3421546F7D119
:1062CC0001A906A807ADFFF7B7FC0FCD3C1D0FC405
:1062DC002B6823700121F669C8E70098FEF7C0FA15
:1062EC00384615B0BDE8F083024B034A1A60002211
:1062FC005A6070470CE703206C6C0D0008B5024B1C
:10630C001B681B68019308BD5C02030008B5024BB7
:10631C001B685B68019308BD5C02030008B5024B67
:10632C001B689B68019308BD5C02030010B5044612
:10633C000F48FEF75DFD28B1A4F10B03022B01D829
:10634C00002010BD00F07AF8FFF77EFE08B1012C9A
:10635C00F6D9FFF701FEFFF7FBFD18B1A4F1090315
:10636C00012BEDD9232C8CBF0020012010BD00BFC8
:10637C0014E70320232838B504460D460AD8FF2914
:10638C0008D0FFF7D3FF28B129462046BDE8384096
:10639C00FEF786BA38BD38B504460D46FEF788FAC6
:1063AC00FF2810D0062804D84D2323FA00F0C30789
:1063BC0009D42046FFF7BAFF28B129462046BDE88C
:1063CC003840FEF77DBA38BD0D2810B504469CBF89
:1063DC000E34A4B22046FFF7A9FF50B1032120468A
:1063EC00FEF756FA032804D12046BDE81040FEF70C
:1063FC006FBA002010BD000070B50C4C0C4E0D4D4A
:10640C0000212046FEF7E0FC20460B4C3246294684
:10641C0000F034F801212046FEF7D6FC324629461E
:10642C002046BDE8704000F029B800BF14E70320F7
:10643C0034E30320C54D0D0024E7032038B50B4D84
:10644C00296811F001040FD12846FDF724FE58B13C
:10645C0021460748FFF7E6FD2846FDF721FE054AD1
:10646C000549034800F00AF8014838BD38E7032015
:10647C003CE7032034E30320D95F0D000B460146B3
:10648C00184600F04DB9FDF702BE08B5FEF746FC04
:10649C00184B1A68D1075CBF01221A60164B1A6898
:1064AC00D2075CBF01221A60144B1A68D0075CBF7C
:1064BC0001221A60124B1A68D1075CBF01221A60C4
:1064CC00104B1A68D2075CBF01221A600E4B1A6877
:1064DC00D0075CBF01221A600C4B1A68D1075CBF55
:1064EC0001221A600A4B1A68D2075CBF01221A609B
:1064FC00704700BF6CE7032068E7032064E70320C4
:10650C0060E703205CE7032058E7032054E70320EF
:10651C0050E70320244B1A68D0075CBF01221A6095
:10652C00224B1A68D1075CBF01221A60204B1A68F3
:10653C00D2075CBF01221A601E4B1A68D0075CBFE1
:10654C0001221A601C4B1A68D1075CBF01221A6029
:10655C001A4B1A68D2075CBF01221A60184B1A68D2
:10656C00D0075CBF01221A60164B1A68D1075CBFBA
:10657C0001221A60144B1A68D2075CBF01221A6000
:10658C00124B1A68D0075CBF01221A60104B1A68B4
:10659C00D1075CBF01221A600E4B1A68D2075CBF90
:1065AC0001221A60704700BF9CE7032098E7032084
:1065BC0094E7032090E703208CE7032088E703206F
:1065CC0084E7032080E703207CE7032078E703209F
:1065DC0074E7032070E70320244B1A68D0075CBFD4
:1065EC0001221A60224B1A68D1075CBF01221A6083
:1065FC00204B1A68D2075CBF01221A601E4B1A6826
:10660C00D0075CBF01221A601C4B1A68D1075CBF13
:10661C0001221A601A4B1A68D2075CBF01221A6059
:10662C00184B1A68D0075CBF01221A60164B1A6807
:10663C00D1075CBF01221A60144B1A68D2075CBFE9
:10664C0001221A60124B1A68D0075CBF01221A6033
:10665C00104B1A68D1075CBF01221A600E4B1A68E6
:10666C00D2075CBF01221A60704700BFCCE7032041
:10667C00C8E70320C4E70320C0E70320BCE70320DE
:10668C00B8E70320B4E70320B0E70320ACE703200E
:10669C00A8E70320A4E70320A0E70320184B1A68FF
:1066AC00D1075CBF01221A60164B1A68D2075CBF77
:1066BC0001221A60144B1A68D0075CBF01221A60C1
:1066CC00124B1A68D1075CBF01221A60104B1A6872
:1066DC00D2075CBF01221A600E4B1A68D0075CBF50
:1066EC0001221A600C4B1A68D1075CBF01221A6098
:1066FC000A4B1A68D2075CBF01221A60704700BFB0
:10670C00ECE70320E8E70320E4E70320E0E70320BD
:10671C00DCE70320D8E70320D4E70320D0E70320ED
:10672C0010B5054C13462CB10A4601460220AFF3B6
:10673C00008010BD204610BD00000000002910B5DF
:10674C0091FBF2F402FB141304DB002B07DA013487
:10675C009B1A04E0002BC4BF04F1FF349B180460A7
:10676C00436010BD10B5431E0A44914204D011F889
:10677C00014B03F8014FF8E710BD02440346934266
:10678C0002D003F8011BFAE77047000038B5124B32
:10679C001C68A36B0546D3B91820FEF7A7FA43F281
:1067AC000E33A06303804AF6CD33438041F2342389
:1067BC0083804EF26D63C3804DF6EC630381052339
:1067CC0043810B23838101220023C0E90423A36BA3
:1067DC0000221D615A6138BD30E3032010F8012BF3
:1067EC0011F8013B012A28BF9A42F7D0D01A704702
:1067FC00034611F8012B03F8012B002AF9D170473D
:10680C00024B0146186800F003B800BF30E30320C8
:10681C0070B5064608460C4600F00DF8451C294696
:10682C003046FEF783FA064618B12A462146FFF792
:10683C0099FF304670BD034613F8012B002AFBD19B
:10684C00181A0138704700001D400D0059400D000A
:10685C0085400D0089400D00000000007369005355
:10686C00657474696E672073656E64496E746572C5
:10687C0076616C20746F3A20006C690053657474F7
:10688C00696E67206C6F67496E74657276616C20F7
:10689C00746F3A2000736D0053657474696E6720D1
:1068AC00737461747573496E74657276616C20745F
:1068BC006F3A2000746D0053657474696E672074B0
:1068CC0072616E736D69744D6F646520746F3A20DC
:1068DC0000746F0053657474696E672074696D651C
:1068EC006F757420746F3A20006462005365747481
:1068FC00696E6720646562756720746F3A20007456
:10690C0072756500556E6B6E6F776E20706172617B
:10691C006D657465722D200022002E005374617217
:10692C0074696E67002C5374617475732C006C69F8
:10693C003A002C73693A002C736D3A002C746D3A42
:10694C00002C746F3A002C7665723A002C2052534E
:10695C0053493A2000537461747573002C5265705E
:10696C006C792C00436F756E746572005254430041
:10697C002C313034332C00746F74616C5061796C31
:10698C006F61643A200050494E00536C656570206D
:10699C0066726F6D2050696E2057616B653A2000EE
:1069AC004E6F726D616C20736C65657000312E31A9
:1069BC002E3200000000000000000000A74D0D006A
:1069CC009D4D0D00934D0D00894D0D007D4D0D001D
:1069DC00714D0D00654D0D005D4D0D00534D0D00BD
:1069EC00494D0D0029620D00000000000000000060
:1069FC00C54D0D00C74D0D00626175640053657285
:106A0C0069616C0053657269616C310074797065F1
:106A1C0000706172616D00636D6400696400686E82
:106A2C0064007374726D0066696C74006C766C0033
:106A3C0061646448616E646C65720072656D6F763A
:106A4C006548616E646C657200656E756D48616E4B
:106A5C00646C657273004A534F4E53747265616D6A
:106A6C004C6F6748616E646C6572006170700025D4
:106A7C003031307520005D20002564002C2000286A
:106A8C00293A2000205B00636F6465203D200025BF
:106A9C00690064657461696C73203D20000D0A0007
:106AAC0066006C6E00666E00636F646500646574EE
:106ABC0061696C006E6F6E6500747261636500696C
:106ACC006E666F007761726E006572726F72007025
:106ADC00616E696300616C6C005A00252B30336465
:106AEC003A253032750025592D256D2D25645425F8
:106AFC00483A254D3A2553257A0061736374696DC4
:106B0C0065000000000000000000000039540D007A
:106B1C00CB540D003B540D000D550D0041540D0090
:106B2C00D9540D006D540D0099540D00FCFFFFFF5E
:106B3C0000000000C3540D00000000000000000025
:106B4C002D560D0033560D0077560D0041560D0095
:106B5C002F560D000000000000000000C55B0D006A
:106B6C00B55B0D00B75B0D000000000000000000DD
:106B7C009D5C0D00ED5C0D00FB5C0D0025520D00C5
:106B8C00D95C0D009F5C0D00B55C0D00E75C0D0041
:106B9C00CB5C0D00995C0D000000000000000000B3
:106BAC00FD5D0D00F35D0D00E95D0D00C7400D00AE
:106BBC00DD5D0D00D15D0D00C55D0D00BD5D0D00F1
:106BCC00B35D0D00A95D0D0029620D0000000000F1
:106BDC0000000000AD5E0D00FD5E0D000B5F0D00B2
:106BEC0025520D00C15E0D00E35E0D00CF5E0D0061
:106BFC00F75E0D00AF5E0D00B35E0D0000000000EF
:106C0C0000000000D95F0D0023600D00FB5F0D003C
:106C1C00DB5F0D0003600D000B600D0013600D00B9
:106C2C001B600D000000000000000000BB600D00A8
:106C3C00B1600D00A7600D009D600D0091600D000E
:106C4C0085600D0079600D0071600D0067600D00AE
:106C5C005D600D0029620D000000000000000000C6
:106C6C00C1610D00CB610D00D5610D00DF610D0020
:106C7C00E9610D00F5610D0001620D000D620D0062
:106C8C0015620D001F620D0029620D00000000004E
:106C9C0000000000000000000000000000000000E8
:106CAC0000000000000000000000000000000000D8
:106CBC0000000000000000000000000000000000C8
:106CCC0000000000000000000000000000000000B8
:106CDC0000000000000000000000000000000000A8
:106CEC00000000000000000000000000B1470D0093
:106CFC00B14D0D007D4E0D0015520D0049530D0088
:106D0C00C5530D001D540D007D5E0D0071610D000D
:106D1C00F5620D0005640D009D640D0021650D00EC
:106D2C00E5650D00A9660D000000000000000000E4
:046D3C000000000053
:106D400012000000102700001300000007000000E0
:106D500001000400020000000D000000010000001E
:106D600004000000A0050000066B0D0000000000FC
:106D7000986C0D00B86C0D00D86C0D000000000080
:106D80000000000000000000000000007A690D0013
:106D900000000000000000000000000000000000F3
:106DA00000000000000000000000000000000000E3
:106DB00000000000000000000000000000000000D3
:106DC000000000000000000000000000D0E20320EE
:106DD000FFFFFFFF7A2901000000010203040506FE
:106DE0000708090A0B0C0D0E0F10111213141516BB
:0C6DF0001718191A1B1C1D1E1F2028005C
:046DFC00785634127F
:04000003D000401CCD
:00000001FF
